{
  "contractName": "Loan",
  "abi": [
    {
      "inputs": [],
      "payable": false,
      "stateMutability": "nonpayable",
      "type": "constructor"
    },
    {
      "anonymous": false,
      "inputs": [
        {
          "indexed": true,
          "internalType": "address",
          "name": "_borrower",
          "type": "address"
        },
        {
          "indexed": true,
          "internalType": "uint256",
          "name": "_depositAmount",
          "type": "uint256"
        }
      ],
      "name": "LogDeposit",
      "type": "event"
    },
    {
      "anonymous": false,
      "inputs": [
        {
          "indexed": false,
          "internalType": "address",
          "name": "_killer",
          "type": "address"
        }
      ],
      "name": "LogKilled",
      "type": "event"
    },
    {
      "anonymous": false,
      "inputs": [
        {
          "indexed": true,
          "internalType": "address",
          "name": "owner",
          "type": "address"
        },
        {
          "indexed": true,
          "internalType": "uint256",
          "name": "contractAmount",
          "type": "uint256"
        }
      ],
      "name": "LogKilledWithdraw",
      "type": "event"
    },
    {
      "anonymous": false,
      "inputs": [
        {
          "indexed": true,
          "internalType": "address",
          "name": "_lender",
          "type": "address"
        },
        {
          "indexed": true,
          "internalType": "uint256",
          "name": "_loanId",
          "type": "uint256"
        }
      ],
      "name": "LogLoanCreation",
      "type": "event"
    },
    {
      "anonymous": false,
      "inputs": [
        {
          "indexed": true,
          "internalType": "address",
          "name": "_borrower",
          "type": "address"
        },
        {
          "indexed": true,
          "internalType": "uint256",
          "name": "_loanID",
          "type": "uint256"
        },
        {
          "indexed": true,
          "internalType": "uint256",
          "name": "_paidBack",
          "type": "uint256"
        }
      ],
      "name": "LogPaid",
      "type": "event"
    },
    {
      "anonymous": false,
      "inputs": [
        {
          "indexed": false,
          "internalType": "address",
          "name": "_owner",
          "type": "address"
        }
      ],
      "name": "LogResumed",
      "type": "event"
    },
    {
      "anonymous": false,
      "inputs": [
        {
          "indexed": true,
          "internalType": "uint256",
          "name": "_loanID",
          "type": "uint256"
        },
        {
          "indexed": true,
          "internalType": "address",
          "name": "_borrower",
          "type": "address"
        },
        {
          "indexed": true,
          "internalType": "uint256",
          "name": "_amountRetrieved",
          "type": "uint256"
        }
      ],
      "name": "LogRetrieved",
      "type": "event"
    },
    {
      "anonymous": false,
      "inputs": [
        {
          "indexed": false,
          "internalType": "address",
          "name": "_owner",
          "type": "address"
        }
      ],
      "name": "LogStopped",
      "type": "event"
    },
    {
      "anonymous": false,
      "inputs": [
        {
          "indexed": false,
          "internalType": "address",
          "name": "newOwner",
          "type": "address"
        }
      ],
      "name": "OwnershipTransferred",
      "type": "event"
    },
    {
      "constant": true,
      "inputs": [],
      "name": "getOwner",
      "outputs": [
        {
          "internalType": "address",
          "name": "_owner",
          "type": "address"
        }
      ],
      "payable": false,
      "stateMutability": "view",
      "type": "function"
    },
    {
      "constant": false,
      "inputs": [],
      "name": "kill",
      "outputs": [],
      "payable": false,
      "stateMutability": "nonpayable",
      "type": "function"
    },
    {
      "constant": true,
      "inputs": [],
      "name": "loanId",
      "outputs": [
        {
          "internalType": "uint256",
          "name": "",
          "type": "uint256"
        }
      ],
      "payable": false,
      "stateMutability": "view",
      "type": "function"
    },
    {
      "constant": true,
      "inputs": [
        {
          "internalType": "uint256",
          "name": "",
          "type": "uint256"
        }
      ],
      "name": "loans",
      "outputs": [
        {
          "internalType": "uint256",
          "name": "fullAmount",
          "type": "uint256"
        },
        {
          "internalType": "uint256",
          "name": "amount",
          "type": "uint256"
        },
        {
          "internalType": "uint256",
          "name": "interest",
          "type": "uint256"
        },
        {
          "internalType": "uint256",
          "name": "ID",
          "type": "uint256"
        },
        {
          "internalType": "address",
          "name": "lender",
          "type": "address"
        },
        {
          "internalType": "address",
          "name": "borrower",
          "type": "address"
        },
        {
          "internalType": "enum Loan.Status",
          "name": "status",
          "type": "uint8"
        },
        {
          "internalType": "uint256",
          "name": "requiredDeposit",
          "type": "uint256"
        }
      ],
      "payable": false,
      "stateMutability": "view",
      "type": "function"
    },
    {
      "constant": false,
      "inputs": [],
      "name": "resume",
      "outputs": [],
      "payable": false,
      "stateMutability": "nonpayable",
      "type": "function"
    },
    {
      "constant": false,
      "inputs": [
        {
          "internalType": "address",
          "name": "newOwner",
          "type": "address"
        }
      ],
      "name": "setOwner",
      "outputs": [
        {
          "internalType": "bool",
          "name": "success",
          "type": "bool"
        }
      ],
      "payable": false,
      "stateMutability": "nonpayable",
      "type": "function"
    },
    {
      "constant": false,
      "inputs": [],
      "name": "stop",
      "outputs": [],
      "payable": false,
      "stateMutability": "nonpayable",
      "type": "function"
    },
    {
      "constant": false,
      "inputs": [
        {
          "internalType": "uint256",
          "name": "_interest",
          "type": "uint256"
        },
        {
          "internalType": "address",
          "name": "_borrower",
          "type": "address"
        },
        {
          "internalType": "uint256",
          "name": "_depositPercentage",
          "type": "uint256"
        }
      ],
      "name": "createLoan",
      "outputs": [
        {
          "internalType": "bool",
          "name": "",
          "type": "bool"
        }
      ],
      "payable": true,
      "stateMutability": "payable",
      "type": "function"
    },
    {
      "constant": false,
      "inputs": [
        {
          "internalType": "uint256",
          "name": "_loanId",
          "type": "uint256"
        }
      ],
      "name": "payLoanDeposit",
      "outputs": [],
      "payable": true,
      "stateMutability": "payable",
      "type": "function"
    },
    {
      "constant": false,
      "inputs": [
        {
          "internalType": "uint256",
          "name": "_loanId",
          "type": "uint256"
        }
      ],
      "name": "payBackLoan",
      "outputs": [],
      "payable": true,
      "stateMutability": "payable",
      "type": "function"
    },
    {
      "constant": false,
      "inputs": [
        {
          "internalType": "uint256",
          "name": "_loanId",
          "type": "uint256"
        }
      ],
      "name": "retrieveLoanFunds",
      "outputs": [],
      "payable": true,
      "stateMutability": "payable",
      "type": "function"
    },
    {
      "constant": true,
      "inputs": [
        {
          "internalType": "uint256",
          "name": "_loanId",
          "type": "uint256"
        }
      ],
      "name": "retrieveLoans",
      "outputs": [
        {
          "internalType": "uint256",
          "name": "fullAmount",
          "type": "uint256"
        },
        {
          "internalType": "uint256",
          "name": "amount",
          "type": "uint256"
        },
        {
          "internalType": "uint256",
          "name": "interest",
          "type": "uint256"
        },
        {
          "internalType": "address",
          "name": "lender",
          "type": "address"
        },
        {
          "internalType": "address",
          "name": "borrower",
          "type": "address"
        },
        {
          "internalType": "uint256",
          "name": "status",
          "type": "uint256"
        },
        {
          "internalType": "uint256",
          "name": "requiredDeposit",
          "type": "uint256"
        }
      ],
      "payable": false,
      "stateMutability": "view",
      "type": "function"
    },
    {
      "constant": false,
      "inputs": [],
      "name": "withdrawWhenKilled",
      "outputs": [],
      "payable": false,
      "stateMutability": "nonpayable",
      "type": "function"
    }
  ],
  "bytecode": "0x608060405234801561001057600080fd5b50336000806101000a81548173ffffffffffffffffffffffffffffffffffffffff021916908373ffffffffffffffffffffffffffffffffffffffff16021790555060008060146101000a81548160ff02191690831515021790555060008060156101000a81548160ff021916908315150217905550600180819055506129eb8061009b6000396000f3fe6080604052600436106100c25760003560e01c806344cce2761161007f578063adfa63b411610059578063adfa63b414610369578063c21c29ed14610380578063c95669a5146103ae578063e1ec3c68146103d9576100c2565b806344cce276146102b65780636faa8b3f146102e4578063893d20e814610312576100c2565b8063046f7da2146100c757806307da68f5146100de57806313af4035146100f55780631b15cee61461015e5780633a98b488146101ce57806341c0e1b51461029f575b600080fd5b3480156100d357600080fd5b506100dc6104bf565b005b3480156100ea57600080fd5b506100f3610705565b005b34801561010157600080fd5b506101446004803603602081101561011857600080fd5b81019080803573ffffffffffffffffffffffffffffffffffffffff16906020019092919050505061094d565b604051808215151515815260200191505060405180910390f35b6101b46004803603606081101561017457600080fd5b8101908080359060200190929190803573ffffffffffffffffffffffffffffffffffffffff16906020019092919080359060200190929190505050610b60565b604051808215151515815260200191505060405180910390f35b3480156101da57600080fd5b50610207600480360360208110156101f157600080fd5b8101908080359060200190929190505050610fd1565b604051808881526020018781526020018681526020018573ffffffffffffffffffffffffffffffffffffffff1673ffffffffffffffffffffffffffffffffffffffff1681526020018473ffffffffffffffffffffffffffffffffffffffff1673ffffffffffffffffffffffffffffffffffffffff16815260200183815260200182815260200197505050505050505060405180910390f35b3480156102ab57600080fd5b506102b4611208565b005b6102e2600480360360208110156102cc57600080fd5b810190808035906020019092919050505061144f565b005b610310600480360360208110156102fa57600080fd5b8101908080359060200190929190505050611917565b005b34801561031e57600080fd5b50610327611d86565b604051808273ffffffffffffffffffffffffffffffffffffffff1673ffffffffffffffffffffffffffffffffffffffff16815260200191505060405180910390f35b34801561037557600080fd5b5061037e611daf565b005b6103ac6004803603602081101561039657600080fd5b810190808035906020019092919050505061208c565b005b3480156103ba57600080fd5b506103c36124e7565b6040518082815260200191505060405180910390f35b3480156103e557600080fd5b50610412600480360360208110156103fc57600080fd5b81019080803590602001909291905050506124ed565b604051808981526020018881526020018781526020018681526020018573ffffffffffffffffffffffffffffffffffffffff1673ffffffffffffffffffffffffffffffffffffffff1681526020018473ffffffffffffffffffffffffffffffffffffffff1673ffffffffffffffffffffffffffffffffffffffff16815260200183600281111561049e57fe5b60ff1681526020018281526020019850505050505050505060405180910390f35b6000809054906101000a900473ffffffffffffffffffffffffffffffffffffffff1673ffffffffffffffffffffffffffffffffffffffff163373ffffffffffffffffffffffffffffffffffffffff1614610581576040517f08c379a000000000000000000000000000000000000000000000000000000000815260040180806020018281038252601f8152602001807f4572726f723a206d73672e73656e646572206d757374206265206f776e65720081525060200191505060405180910390fd5b600060159054906101000a900460ff1615610604576040517f08c379a00000000000000000000000000000000000000000000000000000000081526004018080602001828103825260108152602001807f436f6e747261637420697320646561640000000000000000000000000000000081525060200191505060405180910390fd5b600060149054906101000a900460ff16610686576040517f08c379a00000000000000000000000000000000000000000000000000000000081526004018080602001828103825260138152602001807f436f6e74726163742069732072756e6e696e670000000000000000000000000081525060200191505060405180910390fd5b60008060146101000a81548160ff0219169083151502179055507f29560ba70e3537fccc61029db8de08e30408a3f131625765c51e3e972a7867ad33604051808273ffffffffffffffffffffffffffffffffffffffff1673ffffffffffffffffffffffffffffffffffffffff16815260200191505060405180910390a1565b6000809054906101000a900473ffffffffffffffffffffffffffffffffffffffff1673ffffffffffffffffffffffffffffffffffffffff163373ffffffffffffffffffffffffffffffffffffffff16146107c7576040517f08c379a000000000000000000000000000000000000000000000000000000000815260040180806020018281038252601f8152602001807f4572726f723a206d73672e73656e646572206d757374206265206f776e65720081525060200191505060405180910390fd5b600060159054906101000a900460ff161561084a576040517f08c379a00000000000000000000000000000000000000000000000000000000081526004018080602001828103825260108152602001807f436f6e747261637420697320646561640000000000000000000000000000000081525060200191505060405180910390fd5b600060149054906101000a900460ff16156108cd576040517f08c379a00000000000000000000000000000000000000000000000000000000081526004018080602001828103825260138152602001807f436f6e7472616374206973207061757365642e0000000000000000000000000081525060200191505060405180910390fd5b6001600060146101000a81548160ff0219169083151502179055507fae2ff8b88a09be6cc9de7aa5e8efc037af3dfdb611a1217f8c70fc50975b8a8033604051808273ffffffffffffffffffffffffffffffffffffffff1673ffffffffffffffffffffffffffffffffffffffff16815260200191505060405180910390a1565b60008060009054906101000a900473ffffffffffffffffffffffffffffffffffffffff1673ffffffffffffffffffffffffffffffffffffffff163373ffffffffffffffffffffffffffffffffffffffff1614610a11576040517f08c379a000000000000000000000000000000000000000000000000000000000815260040180806020018281038252601f8152602001807f4572726f723a206d73672e73656e646572206d757374206265206f776e65720081525060200191505060405180910390fd5b600073ffffffffffffffffffffffffffffffffffffffff168273ffffffffffffffffffffffffffffffffffffffff161415610ab4576040517f08c379a000000000000000000000000000000000000000000000000000000000815260040180806020018281038252601a8152602001807f4572726f723a20416464726573732063616e6e6f74206265203000000000000081525060200191505060405180910390fd5b7f04dba622d284ed0014ee4b9a6a68386be1a4c08a4913ae272de89199cc68616382604051808273ffffffffffffffffffffffffffffffffffffffff1673ffffffffffffffffffffffffffffffffffffffff16815260200191505060405180910390a1816000806101000a81548173ffffffffffffffffffffffffffffffffffffffff021916908373ffffffffffffffffffffffffffffffffffffffff16021790555060019050919050565b60008060149054906101000a900460ff1615610be4576040517f08c379a00000000000000000000000000000000000000000000000000000000081526004018080602001828103825260138152602001807f436f6e7472616374206973207061757365642e0000000000000000000000000081525060200191505060405180910390fd5b600060159054906101000a900460ff1615610c67576040517f08c379a00000000000000000000000000000000000000000000000000000000081526004018080602001828103825260108152602001807f436f6e747261637420697320646561640000000000000000000000000000000081525060200191505060405180910390fd5b6064821115610cc1576040517f08c379a00000000000000000000000000000000000000000000000000000000081526004018080602001828103825260248152602001806128ab6024913960400191505060405180910390fd5b600073ffffffffffffffffffffffffffffffffffffffff168373ffffffffffffffffffffffffffffffffffffffff161415610d64576040517f08c379a000000000000000000000000000000000000000000000000000000000815260040180806020018281038252601e8152602001807f426f72726f776572277320616464726573732063616e6e6f742062652030000081525060200191505060405180910390fd5b60003411610dbd576040517f08c379a00000000000000000000000000000000000000000000000000000000081526004018080602001828103825260228152602001806128cf6022913960400191505060405180910390fd5b6001543373ffffffffffffffffffffffffffffffffffffffff167fe9f8c22c262ea6d87192756704ee1e94485d1875fda64d70aa43f13021c281ad60405160405180910390a36000610e2b6064610e1d853461258290919063ffffffff16565b61260890919063ffffffff16565b90506000610e42863461265290919063ffffffff16565b905060405180610100016040528082815260200134815260200187815260200160015481526020013373ffffffffffffffffffffffffffffffffffffffff1681526020018673ffffffffffffffffffffffffffffffffffffffff16815260200160006002811115610eaf57fe5b8152602001838152506002600060015481526020019081526020016000206000820151816000015560208201518160010155604082015181600201556060820151816003015560808201518160040160006101000a81548173ffffffffffffffffffffffffffffffffffffffff021916908373ffffffffffffffffffffffffffffffffffffffff16021790555060a08201518160050160006101000a81548173ffffffffffffffffffffffffffffffffffffffff021916908373ffffffffffffffffffffffffffffffffffffffff16021790555060c08201518160050160146101000a81548160ff02191690836002811115610fa757fe5b021790555060e0820151816006015590505060018054016001819055506001925050509392505050565b60008060008060008060008060149054906101000a900460ff161561105e576040517f08c379a00000000000000000000000000000000000000000000000000000000081526004018080602001828103825260138152602001807f436f6e7472616374206973207061757365642e0000000000000000000000000081525060200191505060405180910390fd5b600060159054906101000a900460ff16156110e1576040517f08c379a00000000000000000000000000000000000000000000000000000000081526004018080602001828103825260108152602001807f436f6e747261637420697320646561640000000000000000000000000000000081525060200191505060405180910390fd5b6002600089815260200190815260200160002060000154965060026000898152602001908152602001600020600101549550600260008981526020019081526020016000206002015494506002600089815260200190815260200160002060040160009054906101000a900473ffffffffffffffffffffffffffffffffffffffff1693506002600089815260200190815260200160002060050160009054906101000a900473ffffffffffffffffffffffffffffffffffffffff1692506002600089815260200190815260200160002060050160149054906101000a900460ff1660028111156111cd57fe5b915060026000898152602001908152602001600020600601549050868686868686869650965096509650965096509650919395979092949650565b6000809054906101000a900473ffffffffffffffffffffffffffffffffffffffff1673ffffffffffffffffffffffffffffffffffffffff163373ffffffffffffffffffffffffffffffffffffffff16146112ca576040517f08c379a000000000000000000000000000000000000000000000000000000000815260040180806020018281038252601f8152602001807f4572726f723a206d73672e73656e646572206d757374206265206f776e65720081525060200191505060405180910390fd5b600060159054906101000a900460ff161561134d576040517f08c379a00000000000000000000000000000000000000000000000000000000081526004018080602001828103825260108152602001807f436f6e747261637420697320646561640000000000000000000000000000000081525060200191505060405180910390fd5b600060149054906101000a900460ff166113cf576040517f08c379a00000000000000000000000000000000000000000000000000000000081526004018080602001828103825260138152602001807f436f6e74726163742069732072756e6e696e670000000000000000000000000081525060200191505060405180910390fd5b6001600060156101000a81548160ff0219169083151502179055507fdd1d1672156846fdc9d6e65d5701535f177a41834051f5f7328be7f4252bcb3133604051808273ffffffffffffffffffffffffffffffffffffffff1673ffffffffffffffffffffffffffffffffffffffff16815260200191505060405180910390a1565b600060149054906101000a900460ff16156114d2576040517f08c379a00000000000000000000000000000000000000000000000000000000081526004018080602001828103825260138152602001807f436f6e7472616374206973207061757365642e0000000000000000000000000081525060200191505060405180910390fd5b600060159054906101000a900460ff1615611555576040517f08c379a00000000000000000000000000000000000000000000000000000000081526004018080602001828103825260108152602001807f436f6e747261637420697320646561640000000000000000000000000000000081525060200191505060405180910390fd5b6000600281111561156257fe5b6002600083815260200190815260200160002060050160149054906101000a900460ff16600281111561159157fe5b14611604576040517f08c379a000000000000000000000000000000000000000000000000000000000815260040180806020018281038252601b8152602001807f4c6f616e20737461747573206d7573742062652050454e44494e47000000000081525060200191505060405180910390fd5b60026000828152602001908152602001600020600601543414611672576040517f08c379a00000000000000000000000000000000000000000000000000000000081526004018080602001828103825260218152602001806129126021913960400191505060405180910390fd5b6002600082815260200190815260200160002060050160009054906101000a900473ffffffffffffffffffffffffffffffffffffffff1673ffffffffffffffffffffffffffffffffffffffff163373ffffffffffffffffffffffffffffffffffffffff161461172c576040517f08c379a000000000000000000000000000000000000000000000000000000000815260040180806020018281038252602f815260200180612955602f913960400191505060405180910390fd5b60016002600083815260200190815260200160002060050160146101000a81548160ff0219169083600281111561175f57fe5b02179055506117a3600260008381526020019081526020016000206006015460026000848152602001908152602001600020600001546126da90919063ffffffff16565b600260008381526020019081526020016000206000018190555060006002600083815260200190815260200160002060040160009054906101000a900473ffffffffffffffffffffffffffffffffffffffff1673ffffffffffffffffffffffffffffffffffffffff163460405180600001905060006040518083038185875af1925050503d8060008114611853576040519150601f19603f3d011682016040523d82523d6000602084013e611858565b606091505b50509050806118cf576040517f08c379a00000000000000000000000000000000000000000000000000000000081526004018080602001828103825260178152602001807f4572726f723a205472616e73666572206661696c65642e00000000000000000081525060200191505060405180910390fd5b343373ffffffffffffffffffffffffffffffffffffffff167f1b851e1031ef35a238e6c67d0c7991162390df915f70eaf9098dbf0b175a619860405160405180910390a35050565b600060149054906101000a900460ff161561199a576040517f08c379a00000000000000000000000000000000000000000000000000000000081526004018080602001828103825260138152602001807f436f6e7472616374206973207061757365642e0000000000000000000000000081525060200191505060405180910390fd5b600060159054906101000a900460ff1615611a1d576040517f08c379a00000000000000000000000000000000000000000000000000000000081526004018080602001828103825260108152602001807f436f6e747261637420697320646561640000000000000000000000000000000081525060200191505060405180910390fd5b6002600082815260200190815260200160002060050160009054906101000a900473ffffffffffffffffffffffffffffffffffffffff1673ffffffffffffffffffffffffffffffffffffffff163373ffffffffffffffffffffffffffffffffffffffff1614611ad7576040517f08c379a000000000000000000000000000000000000000000000000000000000815260040180806020018281038252602f815260200180612955602f913960400191505060405180910390fd5b60026000828152602001908152602001600020600001543414611b45576040517f08c379a00000000000000000000000000000000000000000000000000000000081526004018080602001828103825260338152602001806129846033913960400191505060405180910390fd5b60016002811115611b5257fe5b6002600083815260200190815260200160002060050160149054906101000a900460ff166002811115611b8157fe5b14611bf4576040517f08c379a000000000000000000000000000000000000000000000000000000000815260040180806020018281038252601a8152602001807f4c6f616e20737461747573206d7573742062652041435449564500000000000081525060200191505060405180910390fd5b600280600083815260200190815260200160002060050160146101000a81548160ff02191690836002811115611c2657fe5b021790555060006002600083815260200190815260200160002060040160009054906101000a900473ffffffffffffffffffffffffffffffffffffffff1673ffffffffffffffffffffffffffffffffffffffff163460405180600001905060006040518083038185875af1925050503d8060008114611cc1576040519150601f19603f3d011682016040523d82523d6000602084013e611cc6565b606091505b5050905080611d3d576040517f08c379a00000000000000000000000000000000000000000000000000000000081526004018080602001828103825260178152602001807f4572726f723a205472616e73666572206661696c65642e00000000000000000081525060200191505060405180910390fd5b34823373ffffffffffffffffffffffffffffffffffffffff167ff6a729c51ee4f70fe8ab76f78435ae19604ef1532842ac4ba1006a6fa85ebada60405160405180910390a45050565b60008060009054906101000a900473ffffffffffffffffffffffffffffffffffffffff16905090565b600060159054906101000a900460ff16611e31576040517f08c379a00000000000000000000000000000000000000000000000000000000081526004018080602001828103825260118152602001807f436f6e747261637420697320616c69766500000000000000000000000000000081525060200191505060405180910390fd5b6000809054906101000a900473ffffffffffffffffffffffffffffffffffffffff1673ffffffffffffffffffffffffffffffffffffffff163373ffffffffffffffffffffffffffffffffffffffff1614611ef3576040517f08c379a000000000000000000000000000000000000000000000000000000000815260040180806020018281038252601f8152602001807f4572726f723a206d73672e73656e646572206d757374206265206f776e65720081525060200191505060405180910390fd5b60004711611f69576040517f08c379a000000000000000000000000000000000000000000000000000000000815260040180806020018281038252601c8152602001807f4572726f723a2054686520636f6e747261637420697320656d7074790000000081525060200191505060405180910390fd5b60003373ffffffffffffffffffffffffffffffffffffffff164760405180600001905060006040518083038185875af1925050503d8060008114611fc9576040519150601f19603f3d011682016040523d82523d6000602084013e611fce565b606091505b5050905080612045576040517f08c379a00000000000000000000000000000000000000000000000000000000081526004018080602001828103825260178152602001807f4572726f723a205472616e73666572206661696c65642e00000000000000000081525060200191505060405180910390fd5b473373ffffffffffffffffffffffffffffffffffffffff167f528177d13e940a4046f20556c874626926405065674cbfe290eb1aae6ea44e1560405160405180910390a350565b600060149054906101000a900460ff161561210f576040517f08c379a00000000000000000000000000000000000000000000000000000000081526004018080602001828103825260138152602001807f436f6e7472616374206973207061757365642e0000000000000000000000000081525060200191505060405180910390fd5b600060159054906101000a900460ff1615612192576040517f08c379a00000000000000000000000000000000000000000000000000000000081526004018080602001828103825260108152602001807f436f6e747261637420697320646561640000000000000000000000000000000081525060200191505060405180910390fd5b80600160028111156121a057fe5b6002600083815260200190815260200160002060050160149054906101000a900460ff1660028111156121cf57fe5b14612242576040517f08c379a00000000000000000000000000000000000000000000000000000000081526004018080602001828103825260178152602001807f54686973206c6f616e206973206e6f742061637469766500000000000000000081525060200191505060405180910390fd5b6002600083815260200190815260200160002060050160009054906101000a900473ffffffffffffffffffffffffffffffffffffffff1673ffffffffffffffffffffffffffffffffffffffff163373ffffffffffffffffffffffffffffffffffffffff16146122fc576040517f08c379a00000000000000000000000000000000000000000000000000000000081526004018080602001828103825260228152602001806129336022913960400191505060405180910390fd5b600060026000848152602001908152602001600020600101541415612389576040517f08c379a000000000000000000000000000000000000000000000000000000000815260040180806020018281038252601e8152602001807f546865726520617265206e6f2066756e647320746f207265747269657665000081525060200191505060405180910390fd5b6000600260008481526020019081526020016000206001015490506000600260008581526020019081526020016000206001018190555060003373ffffffffffffffffffffffffffffffffffffffff168260405180600001905060006040518083038185875af1925050503d8060008114612420576040519150601f19603f3d011682016040523d82523d6000602084013e612425565b606091505b505090508061249c576040517f08c379a00000000000000000000000000000000000000000000000000000000081526004018080602001828103825260178152602001807f4572726f723a205472616e73666572206661696c65642e00000000000000000081525060200191505060405180910390fd5b813373ffffffffffffffffffffffffffffffffffffffff16857f07fa76b09de7d490ab4ed35bf0365df1474b9d21891fc1cfdf1c26f725965dd460405160405180910390a450505050565b60015481565b60026020528060005260406000206000915090508060000154908060010154908060020154908060030154908060040160009054906101000a900473ffffffffffffffffffffffffffffffffffffffff16908060050160009054906101000a900473ffffffffffffffffffffffffffffffffffffffff16908060050160149054906101000a900460ff16908060060154905088565b6000808314156125955760009050612602565b60008284029050828482816125a657fe5b04146125fd576040517f08c379a00000000000000000000000000000000000000000000000000000000081526004018080602001828103825260218152602001806128f16021913960400191505060405180910390fd5b809150505b92915050565b600061264a83836040518060400160405280601a81526020017f536166654d6174683a206469766973696f6e206279207a65726f000000000000815250612724565b905092915050565b6000808284019050838110156126d0576040517f08c379a000000000000000000000000000000000000000000000000000000000815260040180806020018281038252601b8152602001807f536166654d6174683a206164646974696f6e206f766572666c6f77000000000081525060200191505060405180910390fd5b8091505092915050565b600061271c83836040518060400160405280601e81526020017f536166654d6174683a207375627472616374696f6e206f766572666c6f7700008152506127ea565b905092915050565b600080831182906127d0576040517f08c379a00000000000000000000000000000000000000000000000000000000081526004018080602001828103825283818151815260200191508051906020019080838360005b8381101561279557808201518184015260208101905061277a565b50505050905090810190601f1680156127c25780820380516001836020036101000a031916815260200191505b509250505060405180910390fd5b5060008385816127dc57fe5b049050809150509392505050565b6000838311158290612897576040517f08c379a00000000000000000000000000000000000000000000000000000000081526004018080602001828103825283818151815260200191508051906020019080838360005b8381101561285c578082015181840152602081019050612841565b50505050905090810190601f1680156128895780820380516001836020036101000a031916815260200191505b509250505060405180910390fd5b506000838503905080915050939250505056fe4465706f7369742050657263656e746167652063616e6e6f7420657863656564203130304c6f616e206d757374206861766520616e206173736f6369617465642056616c7565536166654d6174683a206d756c7469706c69636174696f6e206f766572666c6f77596f75206d757374206465706f7369742074686520726967687420616d6f756e7452657175697265732074686520626f72726f776572206f662074686174206c6f616e596f75206d757374206265207468652061737369676e656420626f72726f77657220666f722074686973206c6f616e596f75206d75737420706179207468652066756c6c206c6f616e20616d6f756e7420696e636c7564696e67696e746572657374a265627a7a72315820d6527549c1f7576ea6caaa3754c6911a3a02e5b109693d155be8486225fd7aee64736f6c63430005100032",
  "source": "pragma solidity >=0.5.0 <0.6.0;\r\n\r\nimport \"openzeppelin-solidity/contracts/math/SafeMath.sol\";\r\nimport \"./Stoppable.sol\";\r\n\r\n   \r\ncontract Loan is Stoppable {\r\n\r\n \r\n   using SafeMath for uint256;\r\n\r\n  \r\n    enum Status {\r\n        PENDING,\r\n        ACTIVE,\r\n        RESOLVED\r\n    }\r\n\r\n    \r\n    struct Loans {\r\n        uint fullAmount;\r\n        uint amount;\r\n        uint interest;\r\n        uint ID;\r\n        address lender;\r\n        address borrower;\r\n        Status status;\r\n        uint requiredDeposit;\r\n    }\r\n\r\n    \r\n    uint public loanId;\r\n\r\n   \r\n    event LogLoanCreation(address indexed _lender, uint indexed _loanId);\r\n    event LogDeposit(address indexed _borrower, uint indexed _depositAmount);\r\n    event LogRetrieved(uint indexed _loanID, address indexed _borrower, uint indexed _amountRetrieved);\r\n    event LogPaid(address indexed _borrower, uint indexed _loanID, uint indexed _paidBack);\r\n    event LogKilledWithdraw(address indexed owner, uint indexed contractAmount);\r\n\r\n    mapping(uint256 => Loans) public loans;\r\n\r\n    modifier paidDeposit(uint _loanId) {\r\n         require(loans[_loanId].status == Status.ACTIVE, \"This loan is not active\");\r\n        _;\r\n    }\r\n\r\n   \r\n    constructor() public {\r\n        loanId = 1;\r\n    }\r\n\r\n  \r\n    function createLoan(uint _interest, address _borrower, uint _depositPercentage)\r\n    external\r\n    payable\r\n    whenRunning\r\n    whenAlive\r\n    returns(bool)\r\n    {   \r\n        require(_depositPercentage <= 100, \"Deposit Percentage cannot exceed 100\");\r\n        require(_borrower != address(0x0), \"Borrower's address cannot be 0\");\r\n        require(msg.value > 0, \"Loan must have an associated Value\");\r\n        emit LogLoanCreation(msg.sender, loanId);\r\n\r\n        uint256 depositPercentage = msg.value.mul(_depositPercentage).div(100);\r\n        uint256 fullAmount = msg.value.add(_interest);\r\n\r\n        loans[loanId] = Loans({\r\n            fullAmount: fullAmount,\r\n            amount: msg.value,\r\n            interest: _interest,\r\n            ID: loanId,\r\n            lender: msg.sender,\r\n            borrower: _borrower,\r\n            status: Status.PENDING,\r\n            requiredDeposit: depositPercentage\r\n        });\r\n\r\n        loanId = loanId + 1;\r\n        return true;\r\n    }\r\n\r\n   \r\n    function payLoanDeposit(uint _loanId)\r\n    external\r\n    payable\r\n    whenRunning\r\n    whenAlive\r\n    {   require(loans[_loanId].status == Status.PENDING, \"Loan status must be PENDING\");\r\n        require(msg.value == loans[_loanId].requiredDeposit, \"You must deposit the right amount\");\r\n        require(msg.sender == loans[_loanId].borrower, \"You must be the assigned borrower for this loan\");\r\n        loans[_loanId].status = Status.ACTIVE;\r\n        loans[_loanId].fullAmount = loans[_loanId].fullAmount.sub(loans[_loanId].requiredDeposit);\r\n        (bool success, ) = loans[_loanId].lender.call.value(msg.value)(\"\");\r\n        require(success, \"Error: Transfer failed.\");\r\n        emit LogDeposit(msg.sender, msg.value);\r\n    }\r\n\r\n  \r\n    function payBackLoan(uint _loanId)\r\n    public\r\n    payable\r\n    whenRunning\r\n    whenAlive\r\n    {\r\n        require(msg.sender == loans[_loanId].borrower, \"You must be the assigned borrower for this loan\");\r\n        require(msg.value == (loans[_loanId].fullAmount), \"You must pay the full loan amount includinginterest\");\r\n        require(loans[_loanId].status == Status.ACTIVE, \"Loan status must be ACTIVE\");\r\n\r\n        loans[_loanId].status = Status.RESOLVED;\r\n        (bool success, ) = loans[_loanId].lender.call.value(msg.value)(\"\");\r\n        require(success, \"Error: Transfer failed.\");\r\n\r\n        emit LogPaid(msg.sender, _loanId, msg.value);\r\n    }\r\n\r\n    function retrieveLoanFunds(uint _loanId)\r\n    public\r\n    payable\r\n    whenRunning\r\n    whenAlive\r\n    paidDeposit(_loanId)\r\n    {\r\n        require(msg.sender == loans[_loanId].borrower, \"Requires the borrower of that loan\");\r\n        require(loans[_loanId].amount != 0, \"There are no funds to retrieve\");\r\n        uint256 loanAmount = loans[_loanId].amount;\r\n\r\n        loans[_loanId].amount = 0;\r\n        (bool success, ) = msg.sender.call.value(loanAmount)(\"\");\r\n        require(success, \"Error: Transfer failed.\");\r\n\r\n        emit LogRetrieved(_loanId, msg.sender, loanAmount);\r\n    }\r\n\r\n   \r\n    function retrieveLoans(uint _loanId)\r\n    public\r\n    view\r\n    whenRunning\r\n    whenAlive\r\n    returns(\r\n    uint fullAmount,\r\n    uint amount,\r\n    uint interest,\r\n    address lender,\r\n    address borrower,\r\n    uint status,\r\n    uint requiredDeposit\r\n    )\r\n    {\r\n        fullAmount = loans[_loanId].fullAmount;\r\n        amount = loans[_loanId].amount;\r\n        interest = loans[_loanId].interest;\r\n        lender = loans[_loanId].lender;\r\n        borrower = loans[_loanId].borrower;\r\n        status = uint(loans[_loanId].status);\r\n        requiredDeposit = loans[_loanId].requiredDeposit;\r\n        return (fullAmount, amount, interest, lender, borrower, status, requiredDeposit);\r\n    }\r\n\r\n    \r\n    function withdrawWhenKilled()\r\n    public\r\n    whenKilled\r\n    onlyOwner\r\n    {\r\n        require(address(this).balance > 0, \"Error: The contract is empty\");\r\n        (bool success, ) = msg.sender.call.value(address(this).balance)(\"\");\r\n        require(success, \"Error: Transfer failed.\");\r\n        emit LogKilledWithdraw(msg.sender, address(this).balance);\r\n    }\r\n}\r\n\r\n\r\n",
  "sourcePath": "C:/Users/Jihen/finalDapp0/contracts/Loan.sol",
  "compiler": {
    "name": "solc",
    "version": "0.5.16+commit.9c3226ce.Emscripten.clang"
  },
  "schemaVersion": "3.4.1",
  "updatedAt": "2021-06-18T09:39:22.120Z",
  "networkType": "ethereum",
  "devdoc": {
    "methods": {}
  },
  "userdoc": {
    "methods": {}
  }
}